:100000009AC0B4C0B3C0B2C0B1C0B0C0AFC0AEC07F
:10001000ADC0ACC0ABC0AAC0A9C0A8C0BFC1A6C07B
:10002000A5C0A4C0A3C0A2C0A1C0A0C09FC09EC0C4
:100030009DC09CC06E616E00696E660000407A10C3
:10004000F35A00A0724E18090010A5D4E80000E889
:100050007648170000E40B54020000CA9A3B0000E7
:1000600000E1F505000080969800000040420F0076
:100070000000A08601000000102700000000E80337
:10008000000000006400000000000A000000000002
:100090000100000000002C76D888DC674F0823DFC1
:1000A000C1DFAE59E1B1B796E5E3E453C63AE65194
:1000B000997696E8E6C28426EB898C9B62ED407CBB
:1000C0006FFCEFBC9C9F40F2BAA56FA5F490055A57
:1000D0002AF75C936B6CF9676DC11BFCE0E40D477C
:1000E000FEF520E6B500D0ED902E0300943577059F
:1000F0000080841E080000204E0A000000C80C3357
:100100003333330F986E12831141EF8D2114893BE5
:10011000E65516CFFEE6DB18D1844B381BF77C1D65
:10012000901DA4BBE424203284725E228100C9F1B8
:1001300024ECA1E53D2711241FBECFEFD4E0DEBFA4
:10014000CDBF11E0A0E0B1E0EEE8F0E102C0059023
:100150000D92AA30B107D9F721E0AAE0B1E001C0C1
:100160001D92A031B207E1F702D08FC749CFCF93DC
:10017000DF93CDB7DEB760970FB6F894DEBF0FBE42
:10018000CDBF8AE290E02FEFFC0120838BE290E06C
:10019000FC01108284E290E02FE0FC01208385E2E4
:1001A00090E0FC01108284E490E022E0FC012083D6
:1001B00085E490E025E0FC0120838EE690E022E0DB
:1001C000FC01208387E490E024E0FC012083789404
:1001D0001A82198289819A8101969A8389838981F9
:1001E0009A816DD080E090E0A0E2B1E48B839C83A3
:1001F000AD83BE8320E030E04AE753E46B817C812D
:100200008D819E813BD5DC01CB018F839887A987A7
:10021000BA8720E030E040E85FE36F817885898528
:100220009A85ABD488232CF481E090E09C878B875F
:100230003BC020E03FEF4FE757E46F817885898529
:100240009A8518D518163CF520E030E040E251E4DC
:100250006B817C818D819E8111D5DC01CB01BC013C
:10026000CD018FD4DC01CB019C878B878B859C854E
:10027000892B09F4AFCF89E190E09E878D878D852A
:100280009E850197F1F79E878D878B859C850197C9
:100290009C878B87EBCF6F81788589859A8571D410
:1002A000DC01CB019C878B878B859C85988B8F8706
:1002B0008F8598890197F1F7988B8F878BCFCF9394
:1002C000DF93CDB7DEB72C970FB6F894DEBF0FBE25
:1002D000CDBF9C878B872AE0E0E0F1E0CE0101965C
:1002E000DC0101900D922A95E1F78B859C8520E138
:1002F00037E2B901E4D39C878B878B859C852AE004
:1003000030E0B901DCD39C01CE010196820F931F2E
:10031000FC01808180930D018B859C8524E630E073
:10032000B901CDD32AE030E0B901C9D3CB019C019A
:10033000CE010196820F931FFC01808180930C01F6
:100340008B859C8528EE33E0B901B9D324E630E0F3
:10035000B901B5D3CB019C01CE010196820F931F49
:10036000FC01808180930B018B859C8528EE33E016
:10037000B901A5D3CB019C01CE010196820F931F39
:10038000FC01808180930A0100002C960FB6F8943E
:10039000DEBF0FBECDBFDF91CF9108951F920F92A8
:1003A0000FB60F9211242F933F934F935F938F9328
:1003B0009F93EF93FF93CF93DF93CDB7DEB78091F9
:1003C0000E0190910F01019683709078992324F487
:1003D00001978C6F9F6F019690930F0180930E0190
:1003E00020910E0130910F0181E090E0AC0102C03C
:1003F000440F551F2A95E2F79A0185E290E0FC012F
:10040000208320910E0130910F018BE290E0265F56
:100410003E4FF9012081FC0120830000DF91CF9144
:10042000FF91EF919F918F915F914F913F912F910C
:100430000F900FBE0F901F901895AFE0B0E0E2E272
:10044000F2E050C36C011B015A01FC0117821682B5
:10045000838181FF2AC39E012F5F3F4F4901F6012F
:100460009381F10193FD859193FF81911F01882371
:1004700009F4CCC2853239F493FD859193FF8191C3
:100480001F01853231F4B60190E071D53501530179
:10049000E6CFF12C512C00E0003238F48B3209F118
:1004A00090F48032F9F0833209F107FD34C020ED79
:1004B000280F2A3020F506FF1BC0FAE0FF9E200D12
:1004C0001124F22E05C08D3279F0803371F701606E
:1004D000F10193FD859193FF81911F018111DCCF83
:1004E0001AC002600460F4CF0860F2CF0061F0CF60
:1004F0003AE0539E200D1124522E0062E9CF8E3235
:1005000021F406FD83C20064E3CF8C3611F4006849
:10051000DFCF8836E9F29BEB980F933008F05CC090
:100520000061805E06FD02C046E0F42E102F1F73AE
:10053000853609F058C0106417FF5EC08F2D9BE30D
:100540009F1508F48BE344244394480E27E03501BB
:10055000F4E06F0E711CF5016081718182819381DD
:10056000042DA40116D45C01F981FC87F0FF03C0BF
:100570000DE2F3FF07C00BE211FD04C0012F047070
:1005800012FD00E22C852C70E22E09F453C00111FB
:100590008FC2F3E0E12CF51590F483E0E52CE81A26
:1005A00013FD07C0B60180E290E0E1D4EA94E110C7
:1005B000F9CF002321F0B601802F90E0D8D43C85FC
:1005C00024E3A22E20E0B22E33FD04C098E3A92E2E
:1005D00090E0B92E107121C09BE9980F933008F07C
:1005E00025C10F7E9FCF863611F41068A5CFFF205E
:1005F00009F4A2CFFA94A0CFE7E02F2DEF1518F45D
:1006000027E037E0F32E412CA2CF11118052B60122
:1006100090E0ADD48FEFA81AB80AF501849181114A
:10062000F4CFEE2009F433CFB60180E290E09FD4FE
:10063000EA94F7CF17FF6CC04A0CFC85F4FF04C0A6
:100640008A81813309F44A9414140CF083C028E0A1
:10065000241510F488E0482E85E090E017FF06C0CE
:10066000C501B7FE02C090E080E00196011101963D
:10067000FF2031F02F2D30E02F5F3F4F820F931F6F
:100680005816190619F014F0E52CE81A812F897014
:1006900011F4E11064C0002321F0B601802F90E036
:1006A00066D413FD02C0E11060C017FF77C085015A
:1006B000B7FE02C010E000E0C501841991092C01C9
:1006C0006F2D70E0EE27FF27E61BF70BFF87EE8705
:1006D0000F3F100721F4B6018EE290E048D4A01637
:1006E000B1060CF448C0401651060CF044C0F501A8
:1006F000E01BF10BE80DF91D8181015011092E85D8
:100700003F8502171307CCF1B60190E030D4E0CF5B
:1007100016FDA2CFEF2DF0E0EA15FB0534F03CEF1B
:10072000A3163FEFB3060CF010683296E80DF91DE2
:1007300001C0FA94FF2019F082918033D1F317FFA2
:100740008BCF442443944F0CFA141B0431F02CF04B
:10075000FA1882CF442443947FCFF12C7DCFB60189
:1007600080E290E004D4EA9494CFB60180E390E074
:10077000FED3EA9498CF80E3C0CFA016B10641F42F
:100780009A81963348F4953319F43C8534FF04C0BC
:10079000B60190E0ECD345CF81E3FACF8A81813373
:1007A00019F09C859F7E9C87B60190E0E0D3FF20E6
:1007B00099F0B6018EE290E0DAD3F394F394E2E09C
:1007C00001E00E0FE80DF92DF11D8081B60190E0DA
:1007D000CED3E02F0F11F4CF85E690E014FF02C0D6
:1007E00085E490E0B601C3D3B7FC06C0A114B10400
:1007F000B1F4EC85E4FF13C0B194A194B1088DE28B
:10080000B60190E0B4D380E32AE0A216B1044CF420
:10081000B60190E0ACD3B601C501C096BBCF8BE268
:10082000EFCF8F5FFAE0AF1AB108EECF8336C1F099
:10083000833769F1833509F057C03501F2E06F0E57
:10084000711CF501A080B1806F2D70E006FD02C023
:100850006FEF7FEFC50175D39D878C8700680DC052
:10086000350132E0630E711CF5018081898321E03E
:1008700030E03D872C8754010F7703FD06C02C859F
:100880003D855216130609F0A0F4E52C28C0350169
:1008900032E0630E711CF501A080B1806F2D70E015
:1008A00006FD02C06FEF7FEFC50156D39D878C8791
:1008B000E3CFB60180E290E05AD35A94E0CFF5013D
:1008C00007FD859107FF81915F01B60190E04FD34D
:1008D000E110EA948C859D8501979D878C87EC8536
:1008E000FD85EF2B61F79DCE843619F0893609F02E
:1008F00070C0350107FF62C0F4E06F0E711CF50196
:100900006081718182819381102F1F7697FF08C0CB
:1009100090958095709561957F4F8F4F9F4F106890
:100920002AE030E0A40153D3A82EA818BA2C012F36
:1009300016FF0AC00E7FAF1438F414FF04C012FD76
:1009400002C0012F0E7EBF2C04FF89C0FE01EA0DFC
:10095000F11D8081803309F07BC0097EF02FF87093
:10096000EF2E03FD8AC000FF84C0FA2CB51410F4EA
:10097000F50CFB1804FF87C0B60180E390E0F7D2C6
:1009800002FF08C088E790E001FF02C088E590E020
:10099000B601EDD2AF1408F482C0AA940A2D10E07B
:1009A0000F5F1F4F080D191DF80182918F01B601CD
:1009B00090E0DDD280169106B9F733CEF2E06F0EEB
:1009C000711CF50160817181072E000C880B990B59
:1009D0009BCF102F8537A1F41F7E2AE030E0350130
:1009E00017FF2DC0F4E06F0E711CF501608171815D
:1009F00082819381A401EBD2A82EA8181F7796CFED
:100A0000197F8F36C9F040F4883589F0F601868168
:100A100097812F96E2E182C0803739F08837B1F7AD
:100A200014FD146020E130E0DACF1061F9CF04FD4D
:100A3000166020E132E0D3CF28E030E0D0CFF2E002
:100A40006F0E711CF5016081718190E080E0D2CF62
:100A500002FD02C0B39482CFB394B3947FCF802FB2
:100A6000867809F47BCFF6CFB60180E290E07FD2A2
:100A7000B394B514C8F3E12C7DCFE52CEB18B51475
:100A800008F478CFF8CF802F867809F483CF8BE2F3
:100A900001FF80E207FD8DE2B60190E07ACFB6015A
:100AA00080E390E064D2FA9475CF8FEF9FEFB1CFDF
:100AB00024E0E12C251508F07ECD84E06FCD97FB76
:100AC000072E16F4009406D077FD08D042D007FC1C
:100AD00005D03EF4909581959F4F0895709561954E
:100AE0007F4F08952F923F924F925F926F927F9225
:100AF0008F929F92AF92BF92CF92DF92EF92FF922E
:100B00000F931F93CF93DF93CDB7DEB7CA1BDB0BD9
:100B10000FB6F894DEBF0FBECDBF09942A8839887E
:100B200048885F846E847D848C849B84AA84B98485
:100B3000C884DF80EE80FD800C811B81AA81B98191
:100B4000CE0FD11D0FB6F894DEBF0FBECDBFED01A5
:100B50000895AA1BBB1B51E107C0AA1FBB1FA61704
:100B6000B70710F0A61BB70B881F991F5A95A9F756
:100B700080959095BC01CD0108952FD008F481E0B7
:100B8000089557D088F09F5790F0B92F9927B75103
:100B9000A0F0D1F0660F771F881F991F1AF0BA9541
:100BA000C9F712C0B13081F05ED0B1E008955BC0EA
:100BB000672F782F8827B85F39F0B93FCCF3869537
:100BC00077956795B395D9F73EF490958095709594
:100BD00061957F4F8F4F9F4F0895990F0008550FD4
:100BE000AA0BE0E8FEEF16161706E807F907C0F0B3
:100BF00012161306E407F50798F0621B730B840BBB
:100C0000950B39F40A2661F0232B242B252B21F494
:100C100008950A2609F4A140A6958FEF811D811D34
:100C2000089557FD9058440F551F59F05F3F71F0DC
:100C30004795880F97FB991F61F09F3F79F0879543
:100C40000895121613061406551FF2CF4695F1DFCC
:100C500008C0161617061806991FF1CF869571055C
:100C6000610508940895E894BB2766277727CB0190
:100C700097F90895B2DF08F48FEF08950BD078C08C
:100C800069D028F06ED018F0952309F05AC05FC0E3
:100C90001124EACFC6DFA0F3959FD1F3950F50E062
:100CA000551F629FF001729FBB27F00DB11D639F1E
:100CB000AA27F00DB11DAA1F649F6627B00DA11DC4
:100CC000661F829F2227B00DA11D621F739FB00D6A
:100CD000A11D621F839FA00D611D221F749F3327DA
:100CE000A00D611D231F849F600D211D822F762F73
:100CF0006A2F11249F5750408AF0E1F088234AF070
:100D0000EE0FFF1FBB1F661F771F881F91505040BB
:100D1000A9F79E3F510570F014C0A6CF5F3FECF3DA
:100D2000983EDCF3869577956795B795F795E795A7
:100D30009F5FC1F7FE2B880F911D9695879597F9B8
:100D4000089597F99F6780E870E060E008959FEF4D
:100D500080EC089500240A94161617061806090652
:100D6000089500240A941216130614060506089521
:100D7000092E0394000C11F4882352F0BB0F40F4A9
:100D8000BF2B11F460FF04C06F5F7F4F8F4F9F4FE9
:100D90000895283008F027E03327DA01990F311D34
:100DA00087FD916000966105710539F432602E5F10
:100DB0003D9330E32A95E1F708959F3F30F0803866
:100DC0007105610509F03C5F3C5F3D93913008F08F
:100DD0008068911DDF93CF931F930F93FF92EF9243
:100DE000192F987F9695E92F96959695E90FFF27ED
:100DF000EA56FF4F99273327EE24FF24A701E70186
:100E000005900894079428F4360FE71EF81E491F32
:100E1000511D660F771F881F991F0694A1F7059033
:100E2000079428F4E70EF81E491F561FC11D770FBF
:100E3000881F991F661F0694A1F70590079428F450
:100E4000F80E491F561FC71FD11D880F991F661F17
:100E5000771F0694A1F70590079420F4490F561FB9
:100E6000C71FD81F990F661F771F881F0694A9F701
:100E700084911095177041F0D695C7955795479571
:100E8000F794E7941A95C1F7ECE3F0E068941590B5
:100E9000159135916591959105907FE27395E118D3
:100EA000F10A430B560BC90BD009C0F7E10CF11E38
:100EB000431F561FC91FD01D7EF4703311F48A954D
:100EC000E6CFE894015030F0080F0AF4002702172B
:100ED00008F4202F2395022F7A3328F079E37D93AD
:100EE0002A95E9F710C07D932A9589F6069497957F
:100EF0006795379517951794E118F10A430B560B30
:100F0000C90BD00998F023957E9173957A3308F038
:100F100070E37C932013B8F77E9170617D9330F07D
:100F2000839571E37D9370E32A95E1F71124EF90A7
:100F3000FF900F911F91CF91DF91992787FD909599
:100F40000895FC010590615070400110D8F780951C
:100F500090958E0F9F1F0895FC0161507040019085
:100F60000110D8F7809590958E0F9F1F08950F93CD
:100F70001F93CF93DF93182F092FEB018B8181FDF6
:100F800009C01FEF0FEF812F902FDF91CF911F919D
:100F90000F91089582FF14C02E813F818C819D8125
:100FA000281739073CF4E881F981CF01019699832C
:100FB000888310838E819F8101969F838E83E3CFE8
:100FC000E885F985812F0995892BA1F3DACFFA01FC
:100FD000AA27283051F1203181F1E8946F936E7F78
:100FE0006E5F7F4F8F4F9F4FAF4FB1E03ED0B4E069
:100FF0003CD0670F781F891F9A1FA11D680F791FAA
:101000008A1F911DA11D6A0F711D811D911DA11DBA
:1010100020D009F468943F912AE0269F11243019CA
:10102000305D3193DEF6CF010895462F4770405D65
:101030004193B3E00FD0C9F7F6CF462F4F70405D14
:101040004A3318F0495D31FD4052419302D0A9F76F
:10105000EACFB4E0A6959795879577956795BA9569
:10106000C9F700976105710508959B01AC010A2E2F
:1010700006945795479537952795BA95C9F7620F06
:0E108000731F841F951FA01D0895F894FFCFC5
:0A108E003F065B4F666D7D077F6F24
:00000001FF
